{
  "_format": "hh-sol-artifact-1",
  "contractName": "Bank",
  "sourceName": "contracts/Bank.sol",
  "abi": [
    {
      "inputs": [
        {
          "internalType": "address",
          "name": "_token",
          "type": "address"
        }
      ],
      "stateMutability": "nonpayable",
      "type": "constructor"
    },
    {
      "anonymous": false,
      "inputs": [
        {
          "indexed": true,
          "internalType": "address",
          "name": "previousOwner",
          "type": "address"
        },
        {
          "indexed": true,
          "internalType": "address",
          "name": "newOwner",
          "type": "address"
        }
      ],
      "name": "OwnershipTransferred",
      "type": "event"
    },
    {
      "inputs": [
        {
          "internalType": "address",
          "name": "_to",
          "type": "address"
        },
        {
          "internalType": "uint256",
          "name": "_shares",
          "type": "uint256"
        }
      ],
      "name": "TransferTo",
      "outputs": [],
      "stateMutability": "nonpayable",
      "type": "function"
    },
    {
      "inputs": [
        {
          "internalType": "address[]",
          "name": "addresses",
          "type": "address[]"
        },
        {
          "internalType": "uint256",
          "name": "_shares",
          "type": "uint256"
        }
      ],
      "name": "TransferToGroup",
      "outputs": [],
      "stateMutability": "nonpayable",
      "type": "function"
    },
    {
      "inputs": [
        {
          "internalType": "address",
          "name": "",
          "type": "address"
        }
      ],
      "name": "balanceOf",
      "outputs": [
        {
          "internalType": "uint256",
          "name": "",
          "type": "uint256"
        }
      ],
      "stateMutability": "view",
      "type": "function"
    },
    {
      "inputs": [
        {
          "internalType": "uint256",
          "name": "_amount",
          "type": "uint256"
        }
      ],
      "name": "deposit",
      "outputs": [],
      "stateMutability": "nonpayable",
      "type": "function"
    },
    {
      "inputs": [],
      "name": "fee",
      "outputs": [
        {
          "internalType": "uint256",
          "name": "",
          "type": "uint256"
        }
      ],
      "stateMutability": "view",
      "type": "function"
    },
    {
      "inputs": [],
      "name": "owner",
      "outputs": [
        {
          "internalType": "address",
          "name": "",
          "type": "address"
        }
      ],
      "stateMutability": "view",
      "type": "function"
    },
    {
      "inputs": [],
      "name": "renounceOwnership",
      "outputs": [],
      "stateMutability": "nonpayable",
      "type": "function"
    },
    {
      "inputs": [
        {
          "internalType": "uint256",
          "name": "_fee",
          "type": "uint256"
        }
      ],
      "name": "setFee",
      "outputs": [],
      "stateMutability": "nonpayable",
      "type": "function"
    },
    {
      "inputs": [
        {
          "internalType": "address",
          "name": "_token",
          "type": "address"
        }
      ],
      "name": "setToken",
      "outputs": [],
      "stateMutability": "nonpayable",
      "type": "function"
    },
    {
      "inputs": [],
      "name": "token",
      "outputs": [
        {
          "internalType": "contract IERC20",
          "name": "",
          "type": "address"
        }
      ],
      "stateMutability": "view",
      "type": "function"
    },
    {
      "inputs": [],
      "name": "totalSupply",
      "outputs": [
        {
          "internalType": "uint256",
          "name": "",
          "type": "uint256"
        }
      ],
      "stateMutability": "view",
      "type": "function"
    },
    {
      "inputs": [
        {
          "internalType": "address",
          "name": "newOwner",
          "type": "address"
        }
      ],
      "name": "transferOwnership",
      "outputs": [],
      "stateMutability": "nonpayable",
      "type": "function"
    },
    {
      "inputs": [
        {
          "internalType": "uint256",
          "name": "_shares",
          "type": "uint256"
        }
      ],
      "name": "withdraw",
      "outputs": [],
      "stateMutability": "nonpayable",
      "type": "function"
    }
  ],
  "bytecode": "0x608060405260016002553480156200001657600080fd5b5060405162001e7a38038062001e7a83398181016040528101906200003c9190620001da565b6200005c62000050620000a460201b60201c565b620000ac60201b60201c565b80600160006101000a81548173ffffffffffffffffffffffffffffffffffffffff021916908373ffffffffffffffffffffffffffffffffffffffff160217905550506200020c565b600033905090565b60008060009054906101000a900473ffffffffffffffffffffffffffffffffffffffff169050816000806101000a81548173ffffffffffffffffffffffffffffffffffffffff021916908373ffffffffffffffffffffffffffffffffffffffff1602179055508173ffffffffffffffffffffffffffffffffffffffff168173ffffffffffffffffffffffffffffffffffffffff167f8be0079c531659141344cd1fd0a4f28419497f9722a3daafe3b4186f6b6457e060405160405180910390a35050565b600080fd5b600073ffffffffffffffffffffffffffffffffffffffff82169050919050565b6000620001a28262000175565b9050919050565b620001b48162000195565b8114620001c057600080fd5b50565b600081519050620001d481620001a9565b92915050565b600060208284031215620001f357620001f262000170565b5b60006200020384828501620001c3565b91505092915050565b611c5e806200021c6000396000f3fe608060405234801561001057600080fd5b50600436106100cf5760003560e01c8063845850991161008c578063cbadbe0111610066578063cbadbe01146101d6578063ddca3f43146101f2578063f2fde38b14610210578063fc0c546a1461022c576100cf565b806384585099146101805780638da5cb5b1461019c578063b6b55f25146101ba576100cf565b8063144fa6d7146100d457806318160ddd146100f05780632e1a7d4d1461010e57806369fe0e2d1461012a57806370a0823114610146578063715018a614610176575b600080fd5b6100ee60048036038101906100e99190611278565b61024a565b005b6100f8610296565b60405161010591906112be565b60405180910390f35b61012860048036038101906101239190611305565b61029c565b005b610144600480360381019061013f9190611305565b6104a3565b005b610160600480360381019061015b9190611278565b6104b5565b60405161016d91906112be565b60405180910390f35b61017e6104cd565b005b61019a60048036038101906101959190611332565b6104e1565b005b6101a4610941565b6040516101b19190611381565b60405180910390f35b6101d460048036038101906101cf9190611305565b61096a565b005b6101f060048036038101906101eb9190611401565b610ce0565b005b6101fa610e65565b60405161020791906112be565b60405180910390f35b61022a60048036038101906102259190611278565b610e6b565b005b610234610eef565b60405161024191906114c0565b60405180910390f35b610252610f15565b80600160006101000a81548173ffffffffffffffffffffffffffffffffffffffff021916908373ffffffffffffffffffffffffffffffffffffffff16021790555050565b60035481565b80600460003373ffffffffffffffffffffffffffffffffffffffff1673ffffffffffffffffffffffffffffffffffffffff16815260200190815260200160002054101561031e576040517f08c379a00000000000000000000000000000000000000000000000000000000081526004016103159061155e565b60405180910390fd5b6000600354600160009054906101000a900473ffffffffffffffffffffffffffffffffffffffff1673ffffffffffffffffffffffffffffffffffffffff166370a08231306040518263ffffffff1660e01b815260040161037e9190611381565b60206040518083038186803b15801561039657600080fd5b505afa1580156103aa573d6000803e3d6000fd5b505050506040513d601f19601f820116820180604052508101906103ce9190611593565b836103d991906115ef565b6103e39190611678565b90506103ef3383610f93565b600160009054906101000a900473ffffffffffffffffffffffffffffffffffffffff1673ffffffffffffffffffffffffffffffffffffffff1663a9059cbb33836040518363ffffffff1660e01b815260040161044c9291906116a9565b602060405180830381600087803b15801561046657600080fd5b505af115801561047a573d6000803e3d6000fd5b505050506040513d601f19601f8201168201806040525081019061049e919061170a565b505050565b6104ab610f15565b8060028190555050565b60046020528060005260406000206000915090505481565b6104d5610f15565b6104df6000611006565b565b80600460003373ffffffffffffffffffffffffffffffffffffffff1673ffffffffffffffffffffffffffffffffffffffff168152602001908152602001600020541015610563576040517f08c379a000000000000000000000000000000000000000000000000000000000815260040161055a906117a9565b60405180910390fd5b6000600354600160009054906101000a900473ffffffffffffffffffffffffffffffffffffffff1673ffffffffffffffffffffffffffffffffffffffff166370a08231306040518263ffffffff1660e01b81526004016105c39190611381565b60206040518083038186803b1580156105db57600080fd5b505afa1580156105ef573d6000803e3d6000fd5b505050506040513d601f19601f820116820180604052508101906106139190611593565b8361061e91906115ef565b6106289190611678565b90506106343383610f93565b600160009054906101000a900473ffffffffffffffffffffffffffffffffffffffff1673ffffffffffffffffffffffffffffffffffffffff1663a9059cbb846064600254606461068491906117c9565b8561068f91906115ef565b6106999190611678565b6040518363ffffffff1660e01b81526004016106b69291906116a9565b602060405180830381600087803b1580156106d057600080fd5b505af11580156106e4573d6000803e3d6000fd5b505050506040513d601f19601f82011682018060405250810190610708919061170a565b506107a46040518060400160405280601881526020017f7472616e7366657220746f20696e636c756465206665653a0000000000000000815250846040518060400160405280600781526020017f616d6f756e743a000000000000000000000000000000000000000000000000008152506064600254606461078a91906117c9565b8661079591906115ef565b61079f9190611678565b6110ca565b606460025460646107b591906117c9565b836107c091906115ef565b6107ca9190611678565b826107d591906117c9565b600460006107e1610941565b73ffffffffffffffffffffffffffffffffffffffff1673ffffffffffffffffffffffffffffffffffffffff168152602001908152602001600020600082825461082a91906117fd565b92505081905550600160009054906101000a900473ffffffffffffffffffffffffffffffffffffffff1673ffffffffffffffffffffffffffffffffffffffff166370a08231306040518263ffffffff1660e01b815260040161088c9190611381565b60206040518083038186803b1580156108a457600080fd5b505afa1580156108b8573d6000803e3d6000fd5b505050506040513d601f19601f820116820180604052508101906108dc9190611593565b600354606460025460646108f091906117c9565b846108fb91906115ef565b6109059190611678565b8361091091906117c9565b61091a91906115ef565b6109249190611678565b6003600082825461093591906117fd565b92505081905550505050565b60008060009054906101000a900473ffffffffffffffffffffffffffffffffffffffff16905090565b80600160009054906101000a900473ffffffffffffffffffffffffffffffffffffffff1673ffffffffffffffffffffffffffffffffffffffff166370a08231336040518263ffffffff1660e01b81526004016109c69190611381565b60206040518083038186803b1580156109de57600080fd5b505afa1580156109f2573d6000803e3d6000fd5b505050506040513d601f19601f82011682018060405250810190610a169190611593565b1015610a57576040517f08c379a0000000000000000000000000000000000000000000000000000000008152600401610a4e906118eb565b60405180910390fd5b80600160009054906101000a900473ffffffffffffffffffffffffffffffffffffffff1673ffffffffffffffffffffffffffffffffffffffff1663dd62ed3e33306040518363ffffffff1660e01b8152600401610ab592919061190b565b60206040518083038186803b158015610acd57600080fd5b505afa158015610ae1573d6000803e3d6000fd5b505050506040513d601f19601f82011682018060405250810190610b059190611593565b1015610b46576040517f08c379a0000000000000000000000000000000000000000000000000000000008152600401610b3d90611980565b60405180910390fd5b6000806003541415610b5a57819050610c20565b600160009054906101000a900473ffffffffffffffffffffffffffffffffffffffff1673ffffffffffffffffffffffffffffffffffffffff166370a08231306040518263ffffffff1660e01b8152600401610bb59190611381565b60206040518083038186803b158015610bcd57600080fd5b505afa158015610be1573d6000803e3d6000fd5b505050506040513d601f19601f82011682018060405250810190610c059190611593565b60035483610c1391906115ef565b610c1d9190611678565b90505b610c2a338261116c565b600160009054906101000a900473ffffffffffffffffffffffffffffffffffffffff1673ffffffffffffffffffffffffffffffffffffffff166323b872dd3330856040518463ffffffff1660e01b8152600401610c89939291906119a0565b602060405180830381600087803b158015610ca357600080fd5b505af1158015610cb7573d6000803e3d6000fd5b505050506040513d601f19601f82011682018060405250810190610cdb919061170a565b505050565b8282905081610cef91906115ef565b600460003373ffffffffffffffffffffffffffffffffffffffff1673ffffffffffffffffffffffffffffffffffffffff168152602001908152602001600020541015610d70576040517f08c379a0000000000000000000000000000000000000000000000000000000008152600401610d67906117a9565b60405180910390fd5b60005b83839050811015610e5f57610daf848483818110610d9457610d936119d7565b5b9050602002016020810190610da99190611278565b836104e1565b610e4c6040518060400160405280601881526020017f7472616e7366657220746f206578636c756465206665653a0000000000000000815250858584818110610dfb57610dfa6119d7565b5b9050602002016020810190610e109190611278565b6040518060400160405280600781526020017f616d6f756e743a00000000000000000000000000000000000000000000000000815250856110ca565b8080610e5790611a06565b915050610d73565b50505050565b60025481565b610e73610f15565b600073ffffffffffffffffffffffffffffffffffffffff168173ffffffffffffffffffffffffffffffffffffffff161415610ee3576040517f08c379a0000000000000000000000000000000000000000000000000000000008152600401610eda90611ac1565b60405180910390fd5b610eec81611006565b50565b600160009054906101000a900473ffffffffffffffffffffffffffffffffffffffff1681565b610f1d6111df565b73ffffffffffffffffffffffffffffffffffffffff16610f3b610941565b73ffffffffffffffffffffffffffffffffffffffff1614610f91576040517f08c379a0000000000000000000000000000000000000000000000000000000008152600401610f8890611b2d565b60405180910390fd5b565b8060036000828254610fa591906117c9565b9250508190555080600460008473ffffffffffffffffffffffffffffffffffffffff1673ffffffffffffffffffffffffffffffffffffffff1681526020019081526020016000206000828254610ffb91906117c9565b925050819055505050565b60008060009054906101000a900473ffffffffffffffffffffffffffffffffffffffff169050816000806101000a81548173ffffffffffffffffffffffffffffffffffffffff021916908373ffffffffffffffffffffffffffffffffffffffff1602179055508173ffffffffffffffffffffffffffffffffffffffff168173ffffffffffffffffffffffffffffffffffffffff167f8be0079c531659141344cd1fd0a4f28419497f9722a3daafe3b4186f6b6457e060405160405180910390a35050565b611166848484846040516024016110e49493929190611bd5565b6040516020818303038152906040527f8f624be9000000000000000000000000000000000000000000000000000000007bffffffffffffffffffffffffffffffffffffffffffffffffffffffff19166020820180517bffffffffffffffffffffffffffffffffffffffffffffffffffffffff83818316178352505050506111e7565b50505050565b806003600082825461117e91906117fd565b9250508190555080600460008473ffffffffffffffffffffffffffffffffffffffff1673ffffffffffffffffffffffffffffffffffffffff16815260200190815260200160002060008282546111d491906117fd565b925050819055505050565b600033905090565b60008151905060006a636f6e736f6c652e6c6f679050602083016000808483855afa5050505050565b600080fd5b600080fd5b600073ffffffffffffffffffffffffffffffffffffffff82169050919050565b60006112458261121a565b9050919050565b6112558161123a565b811461126057600080fd5b50565b6000813590506112728161124c565b92915050565b60006020828403121561128e5761128d611210565b5b600061129c84828501611263565b91505092915050565b6000819050919050565b6112b8816112a5565b82525050565b60006020820190506112d360008301846112af565b92915050565b6112e2816112a5565b81146112ed57600080fd5b50565b6000813590506112ff816112d9565b92915050565b60006020828403121561131b5761131a611210565b5b6000611329848285016112f0565b91505092915050565b6000806040838503121561134957611348611210565b5b600061135785828601611263565b9250506020611368858286016112f0565b9150509250929050565b61137b8161123a565b82525050565b60006020820190506113966000830184611372565b92915050565b600080fd5b600080fd5b600080fd5b60008083601f8401126113c1576113c061139c565b5b8235905067ffffffffffffffff8111156113de576113dd6113a1565b5b6020830191508360208202830111156113fa576113f96113a6565b5b9250929050565b60008060006040848603121561141a57611419611210565b5b600084013567ffffffffffffffff81111561143857611437611215565b5b611444868287016113ab565b93509350506020611457868287016112f0565b9150509250925092565b6000819050919050565b600061148661148161147c8461121a565b611461565b61121a565b9050919050565b60006114988261146b565b9050919050565b60006114aa8261148d565b9050919050565b6114ba8161149f565b82525050565b60006020820190506114d560008301846114b1565b92915050565b600082825260208201905092915050565b7f596f752063616e6e6f74207769746864726177206d6f7265207468616e20796f60008201527f7572206465706f736974696f6e00000000000000000000000000000000000000602082015250565b6000611548602d836114db565b9150611553826114ec565b604082019050919050565b600060208201905081810360008301526115778161153b565b9050919050565b60008151905061158d816112d9565b92915050565b6000602082840312156115a9576115a8611210565b5b60006115b78482850161157e565b91505092915050565b7f4e487b7100000000000000000000000000000000000000000000000000000000600052601160045260246000fd5b60006115fa826112a5565b9150611605836112a5565b9250817fffffffffffffffffffffffffffffffffffffffffffffffffffffffffffffffff048311821515161561163e5761163d6115c0565b5b828202905092915050565b7f4e487b7100000000000000000000000000000000000000000000000000000000600052601260045260246000fd5b6000611683826112a5565b915061168e836112a5565b92508261169e5761169d611649565b5b828204905092915050565b60006040820190506116be6000830185611372565b6116cb60208301846112af565b9392505050565b60008115159050919050565b6116e7816116d2565b81146116f257600080fd5b50565b600081519050611704816116de565b92915050565b6000602082840312156117205761171f611210565b5b600061172e848285016116f5565b91505092915050565b7f596f752063616e6e6f7420747261736e66657220746f6b656e206d6f7265207460008201527f68616e20796f7572206465706f736974696f6e00000000000000000000000000602082015250565b60006117936033836114db565b915061179e82611737565b604082019050919050565b600060208201905081810360008301526117c281611786565b9050919050565b60006117d4826112a5565b91506117df836112a5565b9250828210156117f2576117f16115c0565b5b828203905092915050565b6000611808826112a5565b9150611813836112a5565b9250827fffffffffffffffffffffffffffffffffffffffffffffffffffffffffffffffff03821115611848576118476115c0565b5b828201905092915050565b7f596f757220746f6b656e20616d6f756e74206d7573742062652067726561746560008201527f72207468616e20616d6f756e7420796f752061726520747279696e6720746f2060208201527f6465706f73697400000000000000000000000000000000000000000000000000604082015250565b60006118d56047836114db565b91506118e082611853565b606082019050919050565b60006020820190508181036000830152611904816118c8565b9050919050565b60006040820190506119206000830185611372565b61192d6020830184611372565b9392505050565b7f596f75206d75737420617070726f7665206f757220636f6e7472616374000000600082015250565b600061196a601d836114db565b915061197582611934565b602082019050919050565b600060208201905081810360008301526119998161195d565b9050919050565b60006060820190506119b56000830186611372565b6119c26020830185611372565b6119cf60408301846112af565b949350505050565b7f4e487b7100000000000000000000000000000000000000000000000000000000600052603260045260246000fd5b6000611a11826112a5565b91507fffffffffffffffffffffffffffffffffffffffffffffffffffffffffffffffff821415611a4457611a436115c0565b5b600182019050919050565b7f4f776e61626c653a206e6577206f776e657220697320746865207a65726f206160008201527f6464726573730000000000000000000000000000000000000000000000000000602082015250565b6000611aab6026836114db565b9150611ab682611a4f565b604082019050919050565b60006020820190508181036000830152611ada81611a9e565b9050919050565b7f4f776e61626c653a2063616c6c6572206973206e6f7420746865206f776e6572600082015250565b6000611b176020836114db565b9150611b2282611ae1565b602082019050919050565b60006020820190508181036000830152611b4681611b0a565b9050919050565b600081519050919050565b60005b83811015611b76578082015181840152602081019050611b5b565b83811115611b85576000848401525b50505050565b6000601f19601f8301169050919050565b6000611ba782611b4d565b611bb181856114db565b9350611bc1818560208601611b58565b611bca81611b8b565b840191505092915050565b60006080820190508181036000830152611bef8187611b9c565b9050611bfe6020830186611372565b8181036040830152611c108185611b9c565b9050611c1f60608301846112af565b9594505050505056fea26469706673582212203265112a47e7aa4db1e482c33f6563531519c3f10de9ce0e94295a2772dbb32164736f6c63430008090033",
  "linkReferences": {},
  "deployedLinkReferences": {}
}